{
  "_format": "hh-sol-artifact-1",
  "contractName": "Elections",
  "sourceName": "contracts/Elections.sol",
  "abi": [
    {
      "anonymous": false,
      "inputs": [
        {
          "indexed": true,
          "internalType": "uint256",
          "name": "electionId",
          "type": "uint256"
        },
        {
          "indexed": false,
          "internalType": "uint256",
          "name": "closedAt",
          "type": "uint256"
        }
      ],
      "name": "ElectionClosed",
      "type": "event"
    },
    {
      "anonymous": false,
      "inputs": [
        {
          "indexed": true,
          "internalType": "uint256",
          "name": "electionId",
          "type": "uint256"
        },
        {
          "indexed": false,
          "internalType": "string",
          "name": "title",
          "type": "string"
        }
      ],
      "name": "ElectionCreated",
      "type": "event"
    },
    {
      "anonymous": false,
      "inputs": [
        {
          "indexed": true,
          "internalType": "uint256",
          "name": "electionId",
          "type": "uint256"
        }
      ],
      "name": "ElectionDeleted",
      "type": "event"
    },
    {
      "anonymous": false,
      "inputs": [
        {
          "indexed": true,
          "internalType": "uint256",
          "name": "electionId",
          "type": "uint256"
        },
        {
          "indexed": false,
          "internalType": "uint256",
          "name": "newEndDate",
          "type": "uint256"
        }
      ],
      "name": "ElectionExtended",
      "type": "event"
    },
    {
      "anonymous": false,
      "inputs": [
        {
          "indexed": true,
          "internalType": "uint256",
          "name": "electionId",
          "type": "uint256"
        },
        {
          "indexed": false,
          "internalType": "address",
          "name": "voter",
          "type": "address"
        },
        {
          "indexed": false,
          "internalType": "uint256",
          "name": "candidateIdx",
          "type": "uint256"
        }
      ],
      "name": "Voted",
      "type": "event"
    },
    {
      "inputs": [
        {
          "internalType": "uint256",
          "name": "electionId",
          "type": "uint256"
        }
      ],
      "name": "closeElection",
      "outputs": [
        {
          "internalType": "bool",
          "name": "",
          "type": "bool"
        }
      ],
      "stateMutability": "nonpayable",
      "type": "function"
    },
    {
      "inputs": [
        {
          "internalType": "string",
          "name": "title",
          "type": "string"
        },
        {
          "internalType": "string",
          "name": "description",
          "type": "string"
        },
        {
          "internalType": "string[]",
          "name": "candidateNames",
          "type": "string[]"
        },
        {
          "internalType": "uint256",
          "name": "start_date",
          "type": "uint256"
        },
        {
          "internalType": "uint256",
          "name": "duration_days",
          "type": "uint256"
        }
      ],
      "name": "createElection",
      "outputs": [],
      "stateMutability": "nonpayable",
      "type": "function"
    },
    {
      "inputs": [
        {
          "internalType": "uint256",
          "name": "electionId",
          "type": "uint256"
        }
      ],
      "name": "deleteElection",
      "outputs": [
        {
          "internalType": "bool",
          "name": "",
          "type": "bool"
        }
      ],
      "stateMutability": "nonpayable",
      "type": "function"
    },
    {
      "inputs": [],
      "name": "election_count",
      "outputs": [
        {
          "internalType": "uint256",
          "name": "",
          "type": "uint256"
        }
      ],
      "stateMutability": "view",
      "type": "function"
    },
    {
      "inputs": [
        {
          "internalType": "uint256",
          "name": "",
          "type": "uint256"
        }
      ],
      "name": "exists",
      "outputs": [
        {
          "internalType": "bool",
          "name": "",
          "type": "bool"
        }
      ],
      "stateMutability": "view",
      "type": "function"
    },
    {
      "inputs": [
        {
          "internalType": "uint256",
          "name": "electionId",
          "type": "uint256"
        },
        {
          "internalType": "uint256",
          "name": "duration_days",
          "type": "uint256"
        }
      ],
      "name": "extendElection",
      "outputs": [
        {
          "internalType": "bool",
          "name": "",
          "type": "bool"
        }
      ],
      "stateMutability": "nonpayable",
      "type": "function"
    },
    {
      "inputs": [],
      "name": "getAllElections",
      "outputs": [
        {
          "components": [
            {
              "internalType": "uint256",
              "name": "id",
              "type": "uint256"
            },
            {
              "internalType": "string",
              "name": "title",
              "type": "string"
            },
            {
              "internalType": "string",
              "name": "description",
              "type": "string"
            },
            {
              "internalType": "uint256",
              "name": "start_date",
              "type": "uint256"
            },
            {
              "internalType": "uint256",
              "name": "end_date",
              "type": "uint256"
            },
            {
              "internalType": "address",
              "name": "creator",
              "type": "address"
            },
            {
              "internalType": "bool",
              "name": "is_active",
              "type": "bool"
            },
            {
              "components": [
                {
                  "internalType": "string",
                  "name": "name",
                  "type": "string"
                },
                {
                  "internalType": "uint256",
                  "name": "vote_count",
                  "type": "uint256"
                }
              ],
              "internalType": "struct Elections.ReturnCandidate[]",
              "name": "candidates",
              "type": "tuple[]"
            }
          ],
          "internalType": "struct Elections.ReturnElection[]",
          "name": "",
          "type": "tuple[]"
        }
      ],
      "stateMutability": "view",
      "type": "function"
    },
    {
      "inputs": [
        {
          "internalType": "uint256",
          "name": "electionId",
          "type": "uint256"
        }
      ],
      "name": "getElection",
      "outputs": [
        {
          "internalType": "string",
          "name": "title",
          "type": "string"
        },
        {
          "internalType": "string",
          "name": "description",
          "type": "string"
        },
        {
          "internalType": "uint256",
          "name": "start_date",
          "type": "uint256"
        },
        {
          "internalType": "uint256",
          "name": "end_date",
          "type": "uint256"
        },
        {
          "internalType": "address",
          "name": "creator",
          "type": "address"
        },
        {
          "internalType": "bool",
          "name": "is_active",
          "type": "bool"
        },
        {
          "components": [
            {
              "internalType": "string",
              "name": "name",
              "type": "string"
            },
            {
              "internalType": "uint256",
              "name": "vote_count",
              "type": "uint256"
            }
          ],
          "internalType": "struct Elections.ReturnCandidate[]",
          "name": "candidates",
          "type": "tuple[]"
        }
      ],
      "stateMutability": "view",
      "type": "function"
    },
    {
      "inputs": [],
      "name": "getElectionCount",
      "outputs": [
        {
          "internalType": "uint256",
          "name": "",
          "type": "uint256"
        }
      ],
      "stateMutability": "view",
      "type": "function"
    },
    {
      "inputs": [],
      "name": "getTime",
      "outputs": [
        {
          "internalType": "uint256",
          "name": "",
          "type": "uint256"
        }
      ],
      "stateMutability": "view",
      "type": "function"
    },
    {
      "inputs": [
        {
          "internalType": "uint256",
          "name": "electionId",
          "type": "uint256"
        }
      ],
      "name": "isElectionActive",
      "outputs": [
        {
          "internalType": "bool",
          "name": "",
          "type": "bool"
        }
      ],
      "stateMutability": "view",
      "type": "function"
    },
    {
      "inputs": [
        {
          "internalType": "uint256",
          "name": "electionId",
          "type": "uint256"
        },
        {
          "internalType": "uint256",
          "name": "candidateIdx",
          "type": "uint256"
        }
      ],
      "name": "vote",
      "outputs": [],
      "stateMutability": "nonpayable",
      "type": "function"
    }
  ],
  "bytecode": "0x608060405260008055348015601357600080fd5b50612956806100236000396000f3fe608060405234801561001057600080fd5b50600436106100b45760003560e01c8063740c47d411610071578063740c47d4146101a35780637fd5f268146101d35780639d710777146101f1578063b384abef14610227578063b6b3441f14610243578063d64345c51461025f576100b4565b80630732583c146100b957806309e33d07146100d7578063213785a0146101075780634f558e7914610125578063557ed1ba146101555780636ee17f6f14610173575b600080fd5b6100c161028f565b6040516100ce9190611722565b60405180910390f35b6100f160048036038101906100ec919061177d565b610295565b6040516100fe91906117c5565b60405180910390f35b61010f610431565b60405161011c9190611722565b60405180910390f35b61013f600480360381019061013a919061177d565b61048f565b60405161014c91906117c5565b60405180910390f35b61015d6104af565b60405161016a9190611722565b60405180910390f35b61018d6004803603810190610188919061177d565b6104b7565b60405161019a91906117c5565b60405180910390f35b6101bd60048036038101906101b8919061177d565b61051f565b6040516101ca91906117c5565b60405180910390f35b6101db610712565b6040516101e89190611b4e565b60405180910390f35b61020b6004803603810190610206919061177d565b610bc1565b60405161021e9796959493929190611c4f565b60405180910390f35b610241600480360381019061023c9190611cd3565b610f3f565b005b61025d60048036038101906102589190611f2e565b6111bb565b005b61027960048036038101906102749190611cd3565b61149e565b60405161028691906117c5565b60405180910390f35b60005481565b60006002600083815260200190815260200160002060009054906101000a900460ff166102f7576040517f08c379a00000000000000000000000000000000000000000000000000000000081526004016102ee90612049565b60405180910390fd5b60006001600084815260200190815260200160002090503373ffffffffffffffffffffffffffffffffffffffff168160020160009054906101000a900473ffffffffffffffffffffffffffffffffffffffff1673ffffffffffffffffffffffffffffffffffffffff16146103a0576040517f08c379a0000000000000000000000000000000000000000000000000000000008152600401610397906120db565b60405180910390fd5b806005015442106103e6576040517f08c379a00000000000000000000000000000000000000000000000000000000081526004016103dd90612147565b60405180910390fd5b428160050181905550827fd3461d57d954b89a789e6fbd29ff23c87fef073eae45cc372d7e26cb145943534260405161041f9190611722565b60405180910390a26001915050919050565b6000806000905060005b600054811015610487576002600082815260200190815260200160002060009054906101000a900460ff161561047a57818061047690612196565b9250505b808060010191505061043b565b508091505090565b60026020528060005260406000206000915054906101000a900460ff1681565b600042905090565b60006002600083815260200190815260200160002060009054906101000a900460ff166104e7576000905061051a565b600060016000848152602001908152602001600020905080600301544210158015610516575080600501544211155b9150505b919050565b60006002600083815260200190815260200160002060009054906101000a900460ff16610581576040517f08c379a000000000000000000000000000000000000000000000000000000000815260040161057890612049565b60405180910390fd5b60006001600084815260200190815260200160002090503373ffffffffffffffffffffffffffffffffffffffff168160020160009054906101000a900473ffffffffffffffffffffffffffffffffffffffff1673ffffffffffffffffffffffffffffffffffffffff161461062a576040517f08c379a000000000000000000000000000000000000000000000000000000000815260040161062190612250565b60405180910390fd5b600160008481526020019081526020016000206000808201600061064e91906115e2565b60018201600061065e91906115e2565b6002820160006101000a81549073ffffffffffffffffffffffffffffffffffffffff02191690556003820160009055600482016000905560058201600090556006820160006106ad9190611622565b505060006002600085815260200190815260200160002060006101000a81548160ff021916908315150217905550827fbb78d5fa658dbdad95908d420646ea8bb64f50a9daa1acaa682effe6703f1ed760405160405180910390a26001915050919050565b60606000805b60038054905081101561078557600260006003838154811061073d5761073c612270565b5b9060005260206000200154815260200190815260200160002060009054906101000a900460ff161561077857818061077490612196565b9250505b8080600101915050610718565b5060008167ffffffffffffffff8111156107a2576107a1611d1d565b5b6040519080825280602002602001820160405280156107db57816020015b6107c8611646565b8152602001906001900390816107c05790505b5090506000805b600380549050811015610bb75760006003828154811061080557610804612270565b5b906000526020600020015490506002600082815260200190815260200160002060009054906101000a900460ff1661083d5750610baa565b60006001600083815260200190815260200160002090506000816006018054905067ffffffffffffffff81111561087757610876611d1d565b5b6040519080825280602002602001820160405280156108b057816020015b61089d6116a3565b8152602001906001900390816108955790505b50905060005b82600601805490508110156109db5760405180604001604052808460060183815481106108e6576108e5612270565b5b90600052602060002090600202016000018054610902906122ce565b80601f016020809104026020016040519081016040528092919081815260200182805461092e906122ce565b801561097b5780601f106109505761010080835404028352916020019161097b565b820191906000526020600020905b81548152906001019060200180831161095e57829003601f168201915b5050505050815260200184600601838154811061099b5761099a612270565b5b9060005260206000209060020201600101548152508282815181106109c3576109c2612270565b5b602002602001018190525080806001019150506108b6565b506040518061010001604052808481526020018360000180546109fd906122ce565b80601f0160208091040260200160405190810160405280929190818152602001828054610a29906122ce565b8015610a765780601f10610a4b57610100808354040283529160200191610a76565b820191906000526020600020905b815481529060010190602001808311610a5957829003601f168201915b50505050508152602001836001018054610a8f906122ce565b80601f0160208091040260200160405190810160405280929190818152602001828054610abb906122ce565b8015610b085780601f10610add57610100808354040283529160200191610b08565b820191906000526020600020905b815481529060010190602001808311610aeb57829003601f168201915b5050505050815260200183600301548152602001836005015481526020018360020160009054906101000a900473ffffffffffffffffffffffffffffffffffffffff1673ffffffffffffffffffffffffffffffffffffffff168152602001610b6f856104b7565b1515815260200182815250868681518110610b8d57610b8c612270565b5b60200260200101819052508480610ba390612196565b9550505050505b80806001019150506107e2565b5081935050505090565b60608060008060008060606002600089815260200190815260200160002060009054906101000a900460ff16610c2c576040517f08c379a0000000000000000000000000000000000000000000000000000000008152600401610c2390612049565b60405180910390fd5b6000600160008a815260200190815260200160002090506000816006018054905067ffffffffffffffff811115610c6657610c65611d1d565b5b604051908082528060200260200182016040528015610c9f57816020015b610c8c6116a3565b815260200190600190039081610c845790505b50905060005b8260060180549050811015610dca576040518060400160405280846006018381548110610cd557610cd4612270565b5b90600052602060002090600202016000018054610cf1906122ce565b80601f0160208091040260200160405190810160405280929190818152602001828054610d1d906122ce565b8015610d6a5780601f10610d3f57610100808354040283529160200191610d6a565b820191906000526020600020905b815481529060010190602001808311610d4d57829003601f168201915b50505050508152602001846006018381548110610d8a57610d89612270565b5b906000526020600020906002020160010154815250828281518110610db257610db1612270565b5b60200260200101819052508080600101915050610ca5565b508160000182600101836003015484600501548560020160009054906101000a900473ffffffffffffffffffffffffffffffffffffffff16610e0b8f6104b7565b86868054610e18906122ce565b80601f0160208091040260200160405190810160405280929190818152602001828054610e44906122ce565b8015610e915780601f10610e6657610100808354040283529160200191610e91565b820191906000526020600020905b815481529060010190602001808311610e7457829003601f168201915b50505050509650858054610ea4906122ce565b80601f0160208091040260200160405190810160405280929190818152602001828054610ed0906122ce565b8015610f1d5780601f10610ef257610100808354040283529160200191610f1d565b820191906000526020600020905b815481529060010190602001808311610f0057829003601f168201915b5050505050955098509850985098509850985098505050919395979092949650565b6002600083815260200190815260200160002060009054906101000a900460ff16610f9f576040517f08c379a0000000000000000000000000000000000000000000000000000000008152600401610f9690612049565b60405180910390fd5b600060016000848152602001908152602001600020905080600301544210158015610fce575080600501544211155b61100d576040517f08c379a00000000000000000000000000000000000000000000000000000000081526004016110049061234b565b60405180910390fd5b8060070160003373ffffffffffffffffffffffffffffffffffffffff1673ffffffffffffffffffffffffffffffffffffffff16815260200190815260200160002060009054906101000a900460ff161561109c576040517f08c379a0000000000000000000000000000000000000000000000000000000008152600401611093906123b7565b60405180910390fd5b806006018054905082106110e5576040517f08c379a00000000000000000000000000000000000000000000000000000000081526004016110dc90612423565b60405180910390fd5b60018160070160003373ffffffffffffffffffffffffffffffffffffffff1673ffffffffffffffffffffffffffffffffffffffff16815260200190815260200160002060006101000a81548160ff02191690831515021790555080600601828154811061115557611154612270565b5b9060005260206000209060020201600101600081548092919061117790612196565b9190505550827f1abe610cf2bf87e57dcc1181fcf5ac0934e843d8344ab9eed6e86c799f62585e33846040516111ae929190612443565b60405180910390a2505050565b60008551116111ff576040517f08c379a00000000000000000000000000000000000000000000000000000000081526004016111f6906124b8565b60405180910390fd5b600283511015611244576040517f08c379a000000000000000000000000000000000000000000000000000000000815260040161123b90612524565b60405180910390fd5b61012c426112529190612544565b821015611294576040517f08c379a000000000000000000000000000000000000000000000000000000000815260040161128b906125ea565b60405180910390fd5b600062015180826112a5919061260a565b9050600081846112b5919061264c565b90506000805490506000600160008381526020019081526020016000209050888160000190816112e5919061282c565b50878160010190816112f7919061282c565b50338160020160006101000a81548173ffffffffffffffffffffffffffffffffffffffff021916908373ffffffffffffffffffffffffffffffffffffffff16021790555085816003018190555083816004018190555082816005018190555060005b87518110156113ee578160060160405180604001604052808a848151811061138457611383612270565b5b602002602001015181526020016000815250908060018154018082558091505060019003906000526020600020906002020160009091909190915060008201518160000190816113d4919061282c565b506020820151816001015550508080600101915050611359565b5060016002600084815260200190815260200160002060006101000a81548160ff0219169083151502179055506003829080600181540180825580915050600190039060005260206000200160009091909190915055817f52be7c4e77b4de76b7607d621492061fe13b58597e72dfb5e51ab8f6187ed1418a60405161147491906128fe565b60405180910390a260008081548092919061148e90612196565b9190505550505050505050505050565b60006002600084815260200190815260200160002060009054906101000a900460ff16611500576040517f08c379a00000000000000000000000000000000000000000000000000000000081526004016114f790612049565b60405180910390fd5b60006001600085815260200190815260200160002090503373ffffffffffffffffffffffffffffffffffffffff168160020160009054906101000a900473ffffffffffffffffffffffffffffffffffffffff1673ffffffffffffffffffffffffffffffffffffffff16146115a9576040517f08c379a00000000000000000000000000000000000000000000000000000000081526004016115a0906120db565b60405180910390fd5b600062015180846115ba919061260a565b9050600081426115ca919061264c565b90508083600501819055506001935050505092915050565b5080546115ee906122ce565b6000825580601f10611600575061161f565b601f01602090049060005260206000209081019061161e91906116bd565b5b50565b508054600082556002029060005260206000209081019061164391906116da565b50565b6040518061010001604052806000815260200160608152602001606081526020016000815260200160008152602001600073ffffffffffffffffffffffffffffffffffffffff168152602001600015158152602001606081525090565b604051806040016040528060608152602001600081525090565b5b808211156116d65760008160009055506001016116be565b5090565b5b8082111561170557600080820160006116f491906115e2565b6001820160009055506002016116db565b5090565b6000819050919050565b61171c81611709565b82525050565b60006020820190506117376000830184611713565b92915050565b6000604051905090565b600080fd5b600080fd5b61175a81611709565b811461176557600080fd5b50565b60008135905061177781611751565b92915050565b60006020828403121561179357611792611747565b5b60006117a184828501611768565b91505092915050565b60008115159050919050565b6117bf816117aa565b82525050565b60006020820190506117da60008301846117b6565b92915050565b600081519050919050565b600082825260208201905092915050565b6000819050602082019050919050565b61181581611709565b82525050565b600081519050919050565b600082825260208201905092915050565b60005b8381101561185557808201518184015260208101905061183a565b60008484015250505050565b6000601f19601f8301169050919050565b600061187d8261181b565b6118878185611826565b9350611897818560208601611837565b6118a081611861565b840191505092915050565b600073ffffffffffffffffffffffffffffffffffffffff82169050919050565b60006118d6826118ab565b9050919050565b6118e6816118cb565b82525050565b6118f5816117aa565b82525050565b600081519050919050565b600082825260208201905092915050565b6000819050602082019050919050565b600060408301600083015184820360008601526119448282611872565b9150506020830151611959602086018261180c565b508091505092915050565b60006119708383611927565b905092915050565b6000602082019050919050565b6000611990826118fb565b61199a8185611906565b9350836020820285016119ac85611917565b8060005b858110156119e857848403895281516119c98582611964565b94506119d483611978565b925060208a019950506001810190506119b0565b50829750879550505050505092915050565b600061010083016000830151611a13600086018261180c565b5060208301518482036020860152611a2b8282611872565b91505060408301518482036040860152611a458282611872565b9150506060830151611a5a606086018261180c565b506080830151611a6d608086018261180c565b5060a0830151611a8060a08601826118dd565b5060c0830151611a9360c08601826118ec565b5060e083015184820360e0860152611aab8282611985565b9150508091505092915050565b6000611ac483836119fa565b905092915050565b6000602082019050919050565b6000611ae4826117e0565b611aee81856117eb565b935083602082028501611b00856117fc565b8060005b85811015611b3c5784840389528151611b1d8582611ab8565b9450611b2883611acc565b925060208a01995050600181019050611b04565b50829750879550505050505092915050565b60006020820190508181036000830152611b688184611ad9565b905092915050565b600082825260208201905092915050565b6000611b8c8261181b565b611b968185611b70565b9350611ba6818560208601611837565b611baf81611861565b840191505092915050565b611bc3816118cb565b82525050565b600082825260208201905092915050565b6000611be5826118fb565b611bef8185611bc9565b935083602082028501611c0185611917565b8060005b85811015611c3d5784840389528151611c1e8582611964565b9450611c2983611978565b925060208a01995050600181019050611c05565b50829750879550505050505092915050565b600060e0820190508181036000830152611c69818a611b81565b90508181036020830152611c7d8189611b81565b9050611c8c6040830188611713565b611c996060830187611713565b611ca66080830186611bba565b611cb360a08301856117b6565b81810360c0830152611cc58184611bda565b905098975050505050505050565b60008060408385031215611cea57611ce9611747565b5b6000611cf885828601611768565b9250506020611d0985828601611768565b9150509250929050565b600080fd5b600080fd5b7f4e487b7100000000000000000000000000000000000000000000000000000000600052604160045260246000fd5b611d5582611861565b810181811067ffffffffffffffff82111715611d7457611d73611d1d565b5b80604052505050565b6000611d8761173d565b9050611d938282611d4c565b919050565b600067ffffffffffffffff821115611db357611db2611d1d565b5b611dbc82611861565b9050602081019050919050565b82818337600083830152505050565b6000611deb611de684611d98565b611d7d565b905082815260208101848484011115611e0757611e06611d18565b5b611e12848285611dc9565b509392505050565b600082601f830112611e2f57611e2e611d13565b5b8135611e3f848260208601611dd8565b91505092915050565b600067ffffffffffffffff821115611e6357611e62611d1d565b5b602082029050602081019050919050565b600080fd5b6000611e8c611e8784611e48565b611d7d565b90508083825260208201905060208402830185811115611eaf57611eae611e74565b5b835b81811015611ef657803567ffffffffffffffff811115611ed457611ed3611d13565b5b808601611ee18982611e1a565b85526020850194505050602081019050611eb1565b5050509392505050565b600082601f830112611f1557611f14611d13565b5b8135611f25848260208601611e79565b91505092915050565b600080600080600060a08688031215611f4a57611f49611747565b5b600086013567ffffffffffffffff811115611f6857611f6761174c565b5b611f7488828901611e1a565b955050602086013567ffffffffffffffff811115611f9557611f9461174c565b5b611fa188828901611e1a565b945050604086013567ffffffffffffffff811115611fc257611fc161174c565b5b611fce88828901611f00565b9350506060611fdf88828901611768565b9250506080611ff088828901611768565b9150509295509295909350565b7f456c656374696f6e20646f65736e277420657869737400000000000000000000600082015250565b6000612033601683611b70565b915061203e82611ffd565b602082019050919050565b6000602082019050818103600083015261206281612026565b9050919050565b7f4f6e6c792063726561746f722063616e20636c6f73652074686520656c65637460008201527f696f6e0000000000000000000000000000000000000000000000000000000000602082015250565b60006120c5602383611b70565b91506120d082612069565b604082019050919050565b600060208201905081810360008301526120f4816120b8565b9050919050565b7f456c656374696f6e20616c726561647920656e64656400000000000000000000600082015250565b6000612131601683611b70565b915061213c826120fb565b602082019050919050565b6000602082019050818103600083015261216081612124565b9050919050565b7f4e487b7100000000000000000000000000000000000000000000000000000000600052601160045260246000fd5b60006121a182611709565b91507fffffffffffffffffffffffffffffffffffffffffffffffffffffffffffffffff82036121d3576121d2612167565b5b600182019050919050565b7f4f6e6c792063726561746f722063616e2064656c6574652074686520656c656360008201527f74696f6e00000000000000000000000000000000000000000000000000000000602082015250565b600061223a602483611b70565b9150612245826121de565b604082019050919050565b600060208201905081810360008301526122698161222d565b9050919050565b7f4e487b7100000000000000000000000000000000000000000000000000000000600052603260045260246000fd5b7f4e487b7100000000000000000000000000000000000000000000000000000000600052602260045260246000fd5b600060028204905060018216806122e657607f821691505b6020821081036122f9576122f861229f565b5b50919050565b7f456c656374696f6e206973206e6f742061637469766500000000000000000000600082015250565b6000612335601683611b70565b9150612340826122ff565b602082019050919050565b6000602082019050818103600083015261236481612328565b9050919050565b7f596f75206861766520616c726561647920766f74656400000000000000000000600082015250565b60006123a1601683611b70565b91506123ac8261236b565b602082019050919050565b600060208201905081810360008301526123d081612394565b9050919050565b7f496e76616c69642063616e64696461746520696e646578000000000000000000600082015250565b600061240d601783611b70565b9150612418826123d7565b602082019050919050565b6000602082019050818103600083015261243c81612400565b9050919050565b60006040820190506124586000830185611bba565b6124656020830184611713565b9392505050565b7f5469746c652063616e6e6f7420626520656d7074790000000000000000000000600082015250565b60006124a2601583611b70565b91506124ad8261246c565b602082019050919050565b600060208201905081810360008301526124d181612495565b9050919050565b7f4174206c656173742074776f2063616e64696461746573207265717569726564600082015250565b600061250e602083611b70565b9150612519826124d8565b602082019050919050565b6000602082019050818103600083015261253d81612501565b9050919050565b600061254f82611709565b915061255a83611709565b925082820390508181111561257257612571612167565b5b92915050565b7f53746172742064617465206d757374206265206e6f77206f7220696e2074686560008201527f2066757475726500000000000000000000000000000000000000000000000000602082015250565b60006125d4602783611b70565b91506125df82612578565b604082019050919050565b60006020820190508181036000830152612603816125c7565b9050919050565b600061261582611709565b915061262083611709565b925082820261262e81611709565b9150828204841483151761264557612644612167565b5b5092915050565b600061265782611709565b915061266283611709565b925082820190508082111561267a57612679612167565b5b92915050565b60008190508160005260206000209050919050565b60006020601f8301049050919050565b600082821b905092915050565b6000600883026126e27fffffffffffffffffffffffffffffffffffffffffffffffffffffffffffffffff826126a5565b6126ec86836126a5565b95508019841693508086168417925050509392505050565b6000819050919050565b600061272961272461271f84611709565b612704565b611709565b9050919050565b6000819050919050565b6127438361270e565b61275761274f82612730565b8484546126b2565b825550505050565b600090565b61276c61275f565b61277781848461273a565b505050565b5b8181101561279b57612790600082612764565b60018101905061277d565b5050565b601f8211156127e0576127b181612680565b6127ba84612695565b810160208510156127c9578190505b6127dd6127d585612695565b83018261277c565b50505b505050565b600082821c905092915050565b6000612803600019846008026127e5565b1980831691505092915050565b600061281c83836127f2565b9150826002028217905092915050565b6128358261181b565b67ffffffffffffffff81111561284e5761284d611d1d565b5b61285882546122ce565b61286382828561279f565b600060209050601f8311600181146128965760008415612884578287015190505b61288e8582612810565b8655506128f6565b601f1984166128a486612680565b60005b828110156128cc578489015182556001820191506020850194506020810190506128a7565b868310156128e957848901516128e5601f8916826127f2565b8355505b6001600288020188555050505b505050505050565b600060208201905081810360008301526129188184611b81565b90509291505056fea264697066735822122067d3e9bef365727c4fe8520d02ea1d01054a9219b44ff96b4d5775c680ae644b64736f6c634300081c0033",
  "linkReferences": {},
  "deployedLinkReferences": {}
}