{
  "_format": "hh-sol-artifact-1",
  "contractName": "ElectionManager",
  "sourceName": "contracts/ElectionManager.sol",
  "abi": [
    {
      "inputs": [],
      "stateMutability": "nonpayable",
      "type": "constructor"
    },
    {
      "anonymous": false,
      "inputs": [
        {
          "indexed": true,
          "internalType": "uint256",
          "name": "electionId",
          "type": "uint256"
        },
        {
          "indexed": false,
          "internalType": "string",
          "name": "title",
          "type": "string"
        }
      ],
      "name": "ElectionCreated",
      "type": "event"
    },
    {
      "anonymous": false,
      "inputs": [
        {
          "indexed": true,
          "internalType": "uint256",
          "name": "electionId",
          "type": "uint256"
        },
        {
          "indexed": false,
          "internalType": "address",
          "name": "voter",
          "type": "address"
        },
        {
          "indexed": false,
          "internalType": "uint256",
          "name": "candidateIdx",
          "type": "uint256"
        }
      ],
      "name": "Voted",
      "type": "event"
    },
    {
      "inputs": [
        {
          "internalType": "string",
          "name": "title",
          "type": "string"
        },
        {
          "internalType": "string",
          "name": "description",
          "type": "string"
        },
        {
          "internalType": "string[]",
          "name": "candidateNames",
          "type": "string[]"
        },
        {
          "internalType": "uint256",
          "name": "start_date",
          "type": "uint256"
        },
        {
          "internalType": "uint256",
          "name": "duration_days",
          "type": "uint256"
        }
      ],
      "name": "createElection",
      "outputs": [],
      "stateMutability": "nonpayable",
      "type": "function"
    },
    {
      "inputs": [],
      "name": "election_count",
      "outputs": [
        {
          "internalType": "uint256",
          "name": "",
          "type": "uint256"
        }
      ],
      "stateMutability": "view",
      "type": "function"
    },
    {
      "inputs": [
        {
          "internalType": "uint256",
          "name": "",
          "type": "uint256"
        }
      ],
      "name": "elections",
      "outputs": [
        {
          "internalType": "string",
          "name": "title",
          "type": "string"
        },
        {
          "internalType": "string",
          "name": "description",
          "type": "string"
        },
        {
          "internalType": "uint256",
          "name": "start_date",
          "type": "uint256"
        },
        {
          "internalType": "uint256",
          "name": "duration",
          "type": "uint256"
        },
        {
          "internalType": "uint256",
          "name": "end_date",
          "type": "uint256"
        }
      ],
      "stateMutability": "view",
      "type": "function"
    },
    {
      "inputs": [
        {
          "internalType": "uint256",
          "name": "electionId",
          "type": "uint256"
        }
      ],
      "name": "getElection",
      "outputs": [
        {
          "internalType": "string",
          "name": "title",
          "type": "string"
        },
        {
          "internalType": "string",
          "name": "description",
          "type": "string"
        },
        {
          "components": [
            {
              "internalType": "string",
              "name": "name",
              "type": "string"
            },
            {
              "internalType": "uint256",
              "name": "vote_count",
              "type": "uint256"
            }
          ],
          "internalType": "struct ElectionManager.Candidate[]",
          "name": "candidates",
          "type": "tuple[]"
        },
        {
          "internalType": "uint256",
          "name": "end_date",
          "type": "uint256"
        },
        {
          "internalType": "bool",
          "name": "is_active",
          "type": "bool"
        }
      ],
      "stateMutability": "view",
      "type": "function"
    },
    {
      "inputs": [],
      "name": "getTime",
      "outputs": [
        {
          "internalType": "uint256",
          "name": "",
          "type": "uint256"
        }
      ],
      "stateMutability": "view",
      "type": "function"
    },
    {
      "inputs": [
        {
          "internalType": "uint256",
          "name": "electionId",
          "type": "uint256"
        },
        {
          "internalType": "uint256",
          "name": "candidateIdx",
          "type": "uint256"
        }
      ],
      "name": "vote",
      "outputs": [],
      "stateMutability": "nonpayable",
      "type": "function"
    }
  ],
  "bytecode": "0x608060405234801561001057600080fd5b506000600267ffffffffffffffff81111561002e5761002d6105cd565b5b60405190808252806020026020018201604052801561006157816020015b606081526020019060019003908161004c5790505b5090506040518060400160405280600581526020017f416c696365000000000000000000000000000000000000000000000000000000815250816000815181106100ae576100ad6105fc565b5b60200260200101819052506040518060400160405280600381526020017f426f62000000000000000000000000000000000000000000000000000000000081525081600181518110610103576101026105fc565b5b60200260200101819052506101996040518060400160405280601581526020017f5363686f6f6c20507265736964656e74203230323400000000000000000000008152506040518060400160405280601e81526020017f566f746520666f7220796f7572207363686f6f6c20707265736964656e74000081525083610e104261018c9190610664565b600361037d60201b60201c565b6000600367ffffffffffffffff8111156101b6576101b56105cd565b5b6040519080825280602002602001820160405280156101e957816020015b60608152602001906001900390816101d45790505b5090506040518060400160405280600781526020017f436861726c69650000000000000000000000000000000000000000000000000081525081600081518110610236576102356105fc565b5b60200260200101819052506040518060400160405280600481526020017f44616e61000000000000000000000000000000000000000000000000000000008152508160018151811061028b5761028a6105fc565b5b60200260200101819052506040518060400160405280600481526020017f4576616e00000000000000000000000000000000000000000000000000000000815250816002815181106102e0576102df6105fc565b5b60200260200101819052506103766040518060400160405280601481526020017f436c61737320526570726573656e7461746976650000000000000000000000008152506040518060400160405280602081526020017f53656c65637420796f757220636c61737320726570726573656e74617469766581525083611c20426103699190610664565b600561037d60201b60201c565b5050610bd6565b60008551036103c1576040517f08c379a00000000000000000000000000000000000000000000000000000000081526004016103b89061071b565b60405180910390fd5b600283511015610406576040517f08c379a00000000000000000000000000000000000000000000000000000000081526004016103fd906107ad565b60405180910390fd5b6000620151808261041791906107cd565b9050600081846104279190610664565b9050866001600080548152602001908152602001600020600001908161044d9190610a26565b5085600160008054815260200190815260200160002060010190816104729190610a26565b5083600160008054815260200190815260200160002060030181905550816001600080548152602001908152602001600020600401819055508060016000805481526020019081526020016000206005018190555060005b85518110156105725760016000805481526020019081526020016000206002016040518060400160405280888481518110610508576105076105fc565b5b602002602001015181526020016000815250908060018154018082558091505060019003906000526020600020906002020160009091909190915060008201518160000190816105589190610a26565b5060208201518160010155505080806001019150506104ca565b506000547f52be7c4e77b4de76b7607d621492061fe13b58597e72dfb5e51ab8f6187ed141886040516105a59190610b6c565b60405180910390a26000808154809291906105bf90610b8e565b919050555050505050505050565b7f4e487b7100000000000000000000000000000000000000000000000000000000600052604160045260246000fd5b7f4e487b7100000000000000000000000000000000000000000000000000000000600052603260045260246000fd5b6000819050919050565b7f4e487b7100000000000000000000000000000000000000000000000000000000600052601160045260246000fd5b600061066f8261062b565b915061067a8361062b565b925082820190508082111561069257610691610635565b5b92915050565b600082825260208201905092915050565b7f496e76616c6964456c656374696f6e506172616d65746572733a205469746c6560008201527f206c656e67746820746f6f2073686f7274000000000000000000000000000000602082015250565b6000610705603183610698565b9150610710826106a9565b604082019050919050565b60006020820190508181036000830152610734816106f8565b9050919050565b7f496e76616c6964456c656374696f6e506172616d65746572733a204e6f20656e60008201527f6f7567682063616e646964617465730000000000000000000000000000000000602082015250565b6000610797602f83610698565b91506107a28261073b565b604082019050919050565b600060208201905081810360008301526107c68161078a565b9050919050565b60006107d88261062b565b91506107e38361062b565b92508282026107f18161062b565b9150828204841483151761080857610807610635565b5b5092915050565b600081519050919050565b7f4e487b7100000000000000000000000000000000000000000000000000000000600052602260045260246000fd5b6000600282049050600182168061086157607f821691505b6020821081036108745761087361081a565b5b50919050565b60008190508160005260206000209050919050565b60006020601f8301049050919050565b600082821b905092915050565b6000600883026108dc7fffffffffffffffffffffffffffffffffffffffffffffffffffffffffffffffff8261089f565b6108e6868361089f565b95508019841693508086168417925050509392505050565b6000819050919050565b600061092361091e6109198461062b565b6108fe565b61062b565b9050919050565b6000819050919050565b61093d83610908565b6109516109498261092a565b8484546108ac565b825550505050565b600090565b610966610959565b610971818484610934565b505050565b5b818110156109955761098a60008261095e565b600181019050610977565b5050565b601f8211156109da576109ab8161087a565b6109b48461088f565b810160208510156109c3578190505b6109d76109cf8561088f565b830182610976565b50505b505050565b600082821c905092915050565b60006109fd600019846008026109df565b1980831691505092915050565b6000610a1683836109ec565b9150826002028217905092915050565b610a2f8261080f565b67ffffffffffffffff811115610a4857610a476105cd565b5b610a528254610849565b610a5d828285610999565b600060209050601f831160018114610a905760008415610a7e578287015190505b610a888582610a0a565b865550610af0565b601f198416610a9e8661087a565b60005b82811015610ac657848901518255600182019150602085019450602081019050610aa1565b86831015610ae35784890151610adf601f8916826109ec565b8355505b6001600288020188555050505b505050505050565b60005b83811015610b16578082015181840152602081019050610afb565b60008484015250505050565b6000601f19601f8301169050919050565b6000610b3e8261080f565b610b488185610698565b9350610b58818560208601610af8565b610b6181610b22565b840191505092915050565b60006020820190508181036000830152610b868184610b33565b905092915050565b6000610b998261062b565b91507fffffffffffffffffffffffffffffffffffffffffffffffffffffffffffffffff8203610bcb57610bca610635565b5b600182019050919050565b61184a80610be56000396000f3fe608060405234801561001057600080fd5b50600436106100625760003560e01c80630732583c14610067578063557ed1ba146100855780635e6fef01146100a35780639d710777146100d7578063b384abef1461010b578063b6b3441f14610127575b600080fd5b61006f610143565b60405161007c9190610a3c565b60405180910390f35b61008d610149565b60405161009a9190610a3c565b60405180910390f35b6100bd60048036038101906100b89190610a97565b610151565b6040516100ce959493929190610b54565b60405180910390f35b6100f160048036038101906100ec9190610a97565b610297565b604051610102959493929190610d28565b60405180910390f35b61012560048036038101906101209190610d90565b610535565b005b610141600480360381019061013c9190610feb565b610788565b005b60005481565b600042905090565b6001602052806000526040600020600091509050806000018054610174906110e9565b80601f01602080910402602001604051908101604052809291908181526020018280546101a0906110e9565b80156101ed5780601f106101c2576101008083540402835291602001916101ed565b820191906000526020600020905b8154815290600101906020018083116101d057829003601f168201915b505050505090806001018054610202906110e9565b80601f016020809104026020016040519081016040528092919081815260200182805461022e906110e9565b801561027b5780601f106102505761010080835404028352916020019161027b565b820191906000526020600020905b81548152906001019060200180831161025e57829003601f168201915b5050505050908060030154908060040154908060050154905085565b606080606060008060005486106102e3576040517f08c379a00000000000000000000000000000000000000000000000000000000081526004016102da90611166565b60405180910390fd5b600060016000888152602001908152602001600020905080600001816001018260020183600501546103148b6109d8565b848054610320906110e9565b80601f016020809104026020016040519081016040528092919081815260200182805461034c906110e9565b80156103995780601f1061036e57610100808354040283529160200191610399565b820191906000526020600020905b81548152906001019060200180831161037c57829003601f168201915b505050505094508380546103ac906110e9565b80601f01602080910402602001604051908101604052809291908181526020018280546103d8906110e9565b80156104255780601f106103fa57610100808354040283529160200191610425565b820191906000526020600020905b81548152906001019060200180831161040857829003601f168201915b5050505050935082805480602002602001604051908101604052809291908181526020016000905b8282101561051b5783829060005260206000209060020201604051806040016040529081600082018054610480906110e9565b80601f01602080910402602001604051908101604052809291908181526020018280546104ac906110e9565b80156104f95780601f106104ce576101008083540402835291602001916104f9565b820191906000526020600020905b8154815290600101906020018083116104dc57829003601f168201915b505050505081526020016001820154815250508152602001906001019061044d565b505050509250955095509550955095505091939590929450565b6000548210610579576040517f08c379a000000000000000000000000000000000000000000000000000000000815260040161057090611166565b60405180910390fd5b6000600160008481526020019081526020016000209050806002018054905082106105d9576040517f08c379a00000000000000000000000000000000000000000000000000000000081526004016105d0906111d2565b60405180910390fd5b6105e2836109d8565b610621576040517f08c379a00000000000000000000000000000000000000000000000000000000081526004016106189061123e565b60405180910390fd5b8060060160003373ffffffffffffffffffffffffffffffffffffffff1673ffffffffffffffffffffffffffffffffffffffff16815260200190815260200160002060009054906101000a900460ff16156106b0576040517f08c379a00000000000000000000000000000000000000000000000000000000081526004016106a7906112aa565b60405180910390fd5b60018160060160003373ffffffffffffffffffffffffffffffffffffffff1673ffffffffffffffffffffffffffffffffffffffff16815260200190815260200160002060006101000a81548160ff0219169083151502179055506001816002018381548110610722576107216112ca565b5b906000526020600020906002020160010160008282546107429190611328565b92505081905550827f1abe610cf2bf87e57dcc1181fcf5ac0934e843d8344ab9eed6e86c799f62585e338460405161077b92919061139d565b60405180910390a2505050565b60008551036107cc576040517f08c379a00000000000000000000000000000000000000000000000000000000081526004016107c390611438565b60405180910390fd5b600283511015610811576040517f08c379a0000000000000000000000000000000000000000000000000000000008152600401610808906114ca565b60405180910390fd5b6000620151808261082291906114ea565b9050600081846108329190611328565b9050866001600080548152602001908152602001600020600001908161085891906116d8565b50856001600080548152602001908152602001600020600101908161087d91906116d8565b5083600160008054815260200190815260200160002060030181905550816001600080548152602001908152602001600020600401819055508060016000805481526020019081526020016000206005018190555060005b855181101561097d5760016000805481526020019081526020016000206002016040518060400160405280888481518110610913576109126112ca565b5b6020026020010151815260200160008152509080600181540180825580915050600190039060005260206000209060020201600090919091909150600082015181600001908161096391906116d8565b5060208201518160010155505080806001019150506108d5565b506000547f52be7c4e77b4de76b7607d621492061fe13b58597e72dfb5e51ab8f6187ed141886040516109b091906117aa565b60405180910390a26000808154809291906109ca906117cc565b919050555050505050505050565b6000805482106109eb5760009050610a1e565b600060016000848152602001908152602001600020905080600301544210158015610a1a575080600501544211155b9150505b919050565b6000819050919050565b610a3681610a23565b82525050565b6000602082019050610a516000830184610a2d565b92915050565b6000604051905090565b600080fd5b600080fd5b610a7481610a23565b8114610a7f57600080fd5b50565b600081359050610a9181610a6b565b92915050565b600060208284031215610aad57610aac610a61565b5b6000610abb84828501610a82565b91505092915050565b600081519050919050565b600082825260208201905092915050565b60005b83811015610afe578082015181840152602081019050610ae3565b60008484015250505050565b6000601f19601f8301169050919050565b6000610b2682610ac4565b610b308185610acf565b9350610b40818560208601610ae0565b610b4981610b0a565b840191505092915050565b600060a0820190508181036000830152610b6e8188610b1b565b90508181036020830152610b828187610b1b565b9050610b916040830186610a2d565b610b9e6060830185610a2d565b610bab6080830184610a2d565b9695505050505050565b600081519050919050565b600082825260208201905092915050565b6000819050602082019050919050565b600082825260208201905092915050565b6000610bfd82610ac4565b610c078185610be1565b9350610c17818560208601610ae0565b610c2081610b0a565b840191505092915050565b610c3481610a23565b82525050565b60006040830160008301518482036000860152610c578282610bf2565b9150506020830151610c6c6020860182610c2b565b508091505092915050565b6000610c838383610c3a565b905092915050565b6000602082019050919050565b6000610ca382610bb5565b610cad8185610bc0565b935083602082028501610cbf85610bd1565b8060005b85811015610cfb5784840389528151610cdc8582610c77565b9450610ce783610c8b565b925060208a01995050600181019050610cc3565b50829750879550505050505092915050565b60008115159050919050565b610d2281610d0d565b82525050565b600060a0820190508181036000830152610d428188610b1b565b90508181036020830152610d568187610b1b565b90508181036040830152610d6a8186610c98565b9050610d796060830185610a2d565b610d866080830184610d19565b9695505050505050565b60008060408385031215610da757610da6610a61565b5b6000610db585828601610a82565b9250506020610dc685828601610a82565b9150509250929050565b600080fd5b600080fd5b7f4e487b7100000000000000000000000000000000000000000000000000000000600052604160045260246000fd5b610e1282610b0a565b810181811067ffffffffffffffff82111715610e3157610e30610dda565b5b80604052505050565b6000610e44610a57565b9050610e508282610e09565b919050565b600067ffffffffffffffff821115610e7057610e6f610dda565b5b610e7982610b0a565b9050602081019050919050565b82818337600083830152505050565b6000610ea8610ea384610e55565b610e3a565b905082815260208101848484011115610ec457610ec3610dd5565b5b610ecf848285610e86565b509392505050565b600082601f830112610eec57610eeb610dd0565b5b8135610efc848260208601610e95565b91505092915050565b600067ffffffffffffffff821115610f2057610f1f610dda565b5b602082029050602081019050919050565b600080fd5b6000610f49610f4484610f05565b610e3a565b90508083825260208201905060208402830185811115610f6c57610f6b610f31565b5b835b81811015610fb357803567ffffffffffffffff811115610f9157610f90610dd0565b5b808601610f9e8982610ed7565b85526020850194505050602081019050610f6e565b5050509392505050565b600082601f830112610fd257610fd1610dd0565b5b8135610fe2848260208601610f36565b91505092915050565b600080600080600060a0868803121561100757611006610a61565b5b600086013567ffffffffffffffff81111561102557611024610a66565b5b61103188828901610ed7565b955050602086013567ffffffffffffffff81111561105257611051610a66565b5b61105e88828901610ed7565b945050604086013567ffffffffffffffff81111561107f5761107e610a66565b5b61108b88828901610fbd565b935050606061109c88828901610a82565b92505060806110ad88828901610a82565b9150509295509295909350565b7f4e487b7100000000000000000000000000000000000000000000000000000000600052602260045260246000fd5b6000600282049050600182168061110157607f821691505b602082108103611114576111136110ba565b5b50919050565b7f496e76616c696420656c656374696f6e20494400000000000000000000000000600082015250565b6000611150601383610acf565b915061115b8261111a565b602082019050919050565b6000602082019050818103600083015261117f81611143565b9050919050565b7f496e76616c69642063616e64696461746520696e646578000000000000000000600082015250565b60006111bc601783610acf565b91506111c782611186565b602082019050919050565b600060208201905081810360008301526111eb816111af565b9050919050565b7f456c656374696f6e206973206e6f742061637469766500000000000000000000600082015250565b6000611228601683610acf565b9150611233826111f2565b602082019050919050565b600060208201905081810360008301526112578161121b565b9050919050565b7f416c726561647920766f74656400000000000000000000000000000000000000600082015250565b6000611294600d83610acf565b915061129f8261125e565b602082019050919050565b600060208201905081810360008301526112c381611287565b9050919050565b7f4e487b7100000000000000000000000000000000000000000000000000000000600052603260045260246000fd5b7f4e487b7100000000000000000000000000000000000000000000000000000000600052601160045260246000fd5b600061133382610a23565b915061133e83610a23565b9250828201905080821115611356576113556112f9565b5b92915050565b600073ffffffffffffffffffffffffffffffffffffffff82169050919050565b60006113878261135c565b9050919050565b6113978161137c565b82525050565b60006040820190506113b2600083018561138e565b6113bf6020830184610a2d565b9392505050565b7f496e76616c6964456c656374696f6e506172616d65746572733a205469746c6560008201527f206c656e67746820746f6f2073686f7274000000000000000000000000000000602082015250565b6000611422603183610acf565b915061142d826113c6565b604082019050919050565b6000602082019050818103600083015261145181611415565b9050919050565b7f496e76616c6964456c656374696f6e506172616d65746572733a204e6f20656e60008201527f6f7567682063616e646964617465730000000000000000000000000000000000602082015250565b60006114b4602f83610acf565b91506114bf82611458565b604082019050919050565b600060208201905081810360008301526114e3816114a7565b9050919050565b60006114f582610a23565b915061150083610a23565b925082820261150e81610a23565b91508282048414831517611525576115246112f9565b5b5092915050565b60008190508160005260206000209050919050565b60006020601f8301049050919050565b600082821b905092915050565b60006008830261158e7fffffffffffffffffffffffffffffffffffffffffffffffffffffffffffffffff82611551565b6115988683611551565b95508019841693508086168417925050509392505050565b6000819050919050565b60006115d56115d06115cb84610a23565b6115b0565b610a23565b9050919050565b6000819050919050565b6115ef836115ba565b6116036115fb826115dc565b84845461155e565b825550505050565b600090565b61161861160b565b6116238184846115e6565b505050565b5b818110156116475761163c600082611610565b600181019050611629565b5050565b601f82111561168c5761165d8161152c565b61166684611541565b81016020851015611675578190505b61168961168185611541565b830182611628565b50505b505050565b600082821c905092915050565b60006116af60001984600802611691565b1980831691505092915050565b60006116c8838361169e565b9150826002028217905092915050565b6116e182610ac4565b67ffffffffffffffff8111156116fa576116f9610dda565b5b61170482546110e9565b61170f82828561164b565b600060209050601f8311600181146117425760008415611730578287015190505b61173a85826116bc565b8655506117a2565b601f1984166117508661152c565b60005b8281101561177857848901518255600182019150602085019450602081019050611753565b868310156117955784890151611791601f89168261169e565b8355505b6001600288020188555050505b505050505050565b600060208201905081810360008301526117c48184610b1b565b905092915050565b60006117d782610a23565b91507fffffffffffffffffffffffffffffffffffffffffffffffffffffffffffffffff8203611809576118086112f9565b5b60018201905091905056fea2646970667358221220c205ab99ee5a6e19af156e492c1ecb80dd66199e1a7e05291fee1130df5c968664736f6c634300081c0033",
  "linkReferences": {},
  "deployedLinkReferences": {}
}